{
  "contractName": "SecureVoting",
  "abi": [
    {
      "inputs": [],
      "stateMutability": "nonpayable",
      "type": "constructor"
    },
    {
      "anonymous": false,
      "inputs": [
        {
          "indexed": false,
          "internalType": "uint256",
          "name": "candidateId",
          "type": "uint256"
        },
        {
          "indexed": false,
          "internalType": "string",
          "name": "name",
          "type": "string"
        },
        {
          "indexed": false,
          "internalType": "string",
          "name": "party",
          "type": "string"
        }
      ],
      "name": "CandidateRegistered",
      "type": "event"
    },
    {
      "anonymous": false,
      "inputs": [
        {
          "indexed": false,
          "internalType": "address",
          "name": "voter",
          "type": "address"
        },
        {
          "indexed": false,
          "internalType": "uint256",
          "name": "candidateId",
          "type": "uint256"
        }
      ],
      "name": "VoteCast",
      "type": "event"
    },
    {
      "anonymous": false,
      "inputs": [
        {
          "indexed": false,
          "internalType": "address",
          "name": "voter",
          "type": "address"
        }
      ],
      "name": "VoterRegistered",
      "type": "event"
    },
    {
      "inputs": [],
      "name": "admin",
      "outputs": [
        {
          "internalType": "address",
          "name": "",
          "type": "address"
        }
      ],
      "stateMutability": "view",
      "type": "function",
      "constant": true
    },
    {
      "inputs": [
        {
          "internalType": "uint256",
          "name": "",
          "type": "uint256"
        }
      ],
      "name": "auditTrail",
      "outputs": [
        {
          "internalType": "string",
          "name": "",
          "type": "string"
        }
      ],
      "stateMutability": "view",
      "type": "function",
      "constant": true
    },
    {
      "inputs": [],
      "name": "candidateCount",
      "outputs": [
        {
          "internalType": "uint256",
          "name": "",
          "type": "uint256"
        }
      ],
      "stateMutability": "view",
      "type": "function",
      "constant": true
    },
    {
      "inputs": [
        {
          "internalType": "uint256",
          "name": "",
          "type": "uint256"
        }
      ],
      "name": "candidates",
      "outputs": [
        {
          "internalType": "uint256",
          "name": "id",
          "type": "uint256"
        },
        {
          "internalType": "string",
          "name": "name",
          "type": "string"
        },
        {
          "internalType": "string",
          "name": "party",
          "type": "string"
        },
        {
          "internalType": "uint256",
          "name": "voteCount",
          "type": "uint256"
        }
      ],
      "stateMutability": "view",
      "type": "function",
      "constant": true
    },
    {
      "inputs": [
        {
          "internalType": "address",
          "name": "",
          "type": "address"
        }
      ],
      "name": "voters",
      "outputs": [
        {
          "internalType": "bool",
          "name": "isRegistered",
          "type": "bool"
        },
        {
          "internalType": "bool",
          "name": "hasVoted",
          "type": "bool"
        },
        {
          "internalType": "uint256",
          "name": "vote",
          "type": "uint256"
        }
      ],
      "stateMutability": "view",
      "type": "function",
      "constant": true
    },
    {
      "inputs": [
        {
          "internalType": "address",
          "name": "_voter",
          "type": "address"
        }
      ],
      "name": "registerVoter",
      "outputs": [],
      "stateMutability": "nonpayable",
      "type": "function"
    },
    {
      "inputs": [
        {
          "internalType": "string",
          "name": "_name",
          "type": "string"
        },
        {
          "internalType": "string",
          "name": "_party",
          "type": "string"
        }
      ],
      "name": "registerCandidate",
      "outputs": [],
      "stateMutability": "nonpayable",
      "type": "function"
    },
    {
      "inputs": [
        {
          "internalType": "uint256",
          "name": "_candidateId",
          "type": "uint256"
        }
      ],
      "name": "vote",
      "outputs": [],
      "stateMutability": "nonpayable",
      "type": "function"
    },
    {
      "inputs": [
        {
          "internalType": "uint256",
          "name": "_candidateId",
          "type": "uint256"
        }
      ],
      "name": "getAuditTrail",
      "outputs": [
        {
          "internalType": "string",
          "name": "",
          "type": "string"
        }
      ],
      "stateMutability": "view",
      "type": "function",
      "constant": true
    }
  ],
  "bytecode": "0x608060405234801561001057600080fd5b50336000806101000a81548173ffffffffffffffffffffffffffffffffffffffff021916908373ffffffffffffffffffffffffffffffffffffffff160217905550611461806100606000396000f3fe608060405234801561001057600080fd5b50600436106100935760003560e01c8063a3ec138d11610066578063a3ec138d1461011f578063a9a981a314610151578063c231fa461461016f578063ddaf09291461019f578063f851a440146101cf57610093565b80630121b93f146100985780630dbce4dd146100b45780633477ee2e146100d057806338db6dd314610103575b600080fd5b6100b260048036038101906100ad9190610d0c565b6101ed565b005b6100ce60048036038101906100c99190610ca0565b6104d8565b005b6100ea60048036038101906100e59190610d0c565b610649565b6040516100fa949392919061113b565b60405180910390f35b61011d60048036038101906101189190610c77565b610789565b005b61013960048036038101906101349190610c77565b61098f565b60405161014893929190610fe2565b60405180910390f35b6101596109d3565b60405161016691906110db565b60405180910390f35b61018960048036038101906101849190610d0c565b6109d9565b6040516101969190611019565b60405180910390f35b6101b960048036038101906101b49190610d0c565b610a7e565b6040516101c69190611019565b60405180910390f35b6101d7610b1e565b6040516101e49190610f9e565b60405180910390f35b600360003373ffffffffffffffffffffffffffffffffffffffff1673ffffffffffffffffffffffffffffffffffffffff16815260200190815260200160002060000160009054906101000a900460ff1661027c576040517f08c379a00000000000000000000000000000000000000000000000000000000081526004016102739061103b565b60405180910390fd5b600360003373ffffffffffffffffffffffffffffffffffffffff1673ffffffffffffffffffffffffffffffffffffffff16815260200190815260200160002060000160019054906101000a900460ff161561030c576040517f08c379a00000000000000000000000000000000000000000000000000000000081526004016103039061105b565b60405180910390fd5b60008111801561031e57506001548111155b61035d576040517f08c379a0000000000000000000000000000000000000000000000000000000008152600401610354906110bb565b60405180910390fd5b6001600360003373ffffffffffffffffffffffffffffffffffffffff1673ffffffffffffffffffffffffffffffffffffffff16815260200190815260200160002060000160016101000a81548160ff02191690831515021790555080600360003373ffffffffffffffffffffffffffffffffffffffff1673ffffffffffffffffffffffffffffffffffffffff16815260200190815260200160002060010181905550600260008281526020019081526020016000206003016000815480929190610426906112d1565b919050555033814260405160200161044093929190610f46565b604051602081830303815290604052805190602001206040516020016104669190610f83565b60405160208183030381529060405260046000838152602001908152602001600020908051906020019061049b929190610b42565b507fa36cc2bebb74db33e9f88110a07ef56e1b31b24b4c4f51b54b1664266e29f45b33826040516104cd929190610fb9565b60405180910390a150565b60008054906101000a900473ffffffffffffffffffffffffffffffffffffffff1673ffffffffffffffffffffffffffffffffffffffff163373ffffffffffffffffffffffffffffffffffffffff1614610566576040517f08c379a000000000000000000000000000000000000000000000000000000000815260040161055d9061109b565b60405180910390fd5b60016000815480929190610579906112d1565b91905055506040518060800160405280600154815260200183815260200182815260200160008152506002600060015481526020019081526020016000206000820151816000015560208201518160010190805190602001906105dd929190610b42565b5060408201518160020190805190602001906105fa929190610b42565b50606082015181600301559050507f0ec1a365aeeec255796bf50d7a2a8f24d0d5f5c6ada0167b6c647428d9164582600154838360405161063d939291906110f6565b60405180910390a15050565b60026020528060005260406000206000915090508060000154908060010180546106729061129f565b80601f016020809104026020016040519081016040528092919081815260200182805461069e9061129f565b80156106eb5780601f106106c0576101008083540402835291602001916106eb565b820191906000526020600020905b8154815290600101906020018083116106ce57829003601f168201915b5050505050908060020180546107009061129f565b80601f016020809104026020016040519081016040528092919081815260200182805461072c9061129f565b80156107795780601f1061074e57610100808354040283529160200191610779565b820191906000526020600020905b81548152906001019060200180831161075c57829003601f168201915b5050505050908060030154905084565b60008054906101000a900473ffffffffffffffffffffffffffffffffffffffff1673ffffffffffffffffffffffffffffffffffffffff163373ffffffffffffffffffffffffffffffffffffffff1614610817576040517f08c379a000000000000000000000000000000000000000000000000000000000815260040161080e9061109b565b60405180910390fd5b600360008273ffffffffffffffffffffffffffffffffffffffff1673ffffffffffffffffffffffffffffffffffffffff16815260200190815260200160002060000160009054906101000a900460ff16156108a7576040517f08c379a000000000000000000000000000000000000000000000000000000000815260040161089e9061107b565b60405180910390fd5b60405180606001604052806001151581526020016000151581526020016000815250600360008373ffffffffffffffffffffffffffffffffffffffff1673ffffffffffffffffffffffffffffffffffffffff16815260200190815260200160002060008201518160000160006101000a81548160ff02191690831515021790555060208201518160000160016101000a81548160ff021916908315150217905550604082015181600101559050507fb6be2187d059cc2a55fe29e0e503b566e1e0f8c8780096e185429350acffd3dd816040516109849190610f9e565b60405180910390a150565b60036020528060005260406000206000915090508060000160009054906101000a900460ff16908060000160019054906101000a900460ff16908060010154905083565b60015481565b60606004600083815260200190815260200160002080546109f99061129f565b80601f0160208091040260200160405190810160405280929190818152602001828054610a259061129f565b8015610a725780601f10610a4757610100808354040283529160200191610a72565b820191906000526020600020905b815481529060010190602001808311610a5557829003601f168201915b50505050509050919050565b60046020528060005260406000206000915090508054610a9d9061129f565b80601f0160208091040260200160405190810160405280929190818152602001828054610ac99061129f565b8015610b165780601f10610aeb57610100808354040283529160200191610b16565b820191906000526020600020905b815481529060010190602001808311610af957829003601f168201915b505050505081565b60008054906101000a900473ffffffffffffffffffffffffffffffffffffffff1681565b828054610b4e9061129f565b90600052602060002090601f016020900481019282610b705760008555610bb7565b82601f10610b8957805160ff1916838001178555610bb7565b82800160010185558215610bb7579182015b82811115610bb6578251825591602001919060010190610b9b565b5b509050610bc49190610bc8565b5090565b5b80821115610be1576000816000905550600101610bc9565b5090565b6000610bf8610bf3846111bf565b61118e565b905082815260208101848484011115610c1057600080fd5b610c1b84828561125d565b509392505050565b600081359050610c32816113fd565b92915050565b600082601f830112610c4957600080fd5b8135610c59848260208601610be5565b91505092915050565b600081359050610c7181611414565b92915050565b600060208284031215610c8957600080fd5b6000610c9784828501610c23565b91505092915050565b60008060408385031215610cb357600080fd5b600083013567ffffffffffffffff811115610ccd57600080fd5b610cd985828601610c38565b925050602083013567ffffffffffffffff811115610cf657600080fd5b610d0285828601610c38565b9150509250929050565b600060208284031215610d1e57600080fd5b6000610d2c84828501610c62565b91505092915050565b610d3e8161120b565b82525050565b610d55610d508261120b565b61131a565b82525050565b610d648161121d565b82525050565b610d7b610d7682611229565b61132c565b82525050565b6000610d8c826111ef565b610d9681856111fa565b9350610da681856020860161126c565b610daf816113df565b840191505092915050565b6000610dc76016836111fa565b91507f4e6f74207265676973746572656420746f20766f7465000000000000000000006000830152602082019050919050565b6000610e07600d836111fa565b91507f416c726561647920766f746564000000000000000000000000000000000000006000830152602082019050919050565b6000610e476018836111fa565b91507f566f74657220616c7265616479207265676973746572656400000000000000006000830152602082019050919050565b6000610e876022836111fa565b91507f4f6e6c792061646d696e2063616e20706572666f726d2074686973206163746960008301527f6f6e0000000000000000000000000000000000000000000000000000000000006020830152604082019050919050565b6000610eed6014836111fa565b91507f496e76616c69642063616e6469646174652049440000000000000000000000006000830152602082019050919050565b610f2981611253565b82525050565b610f40610f3b82611253565b611348565b82525050565b6000610f528286610d44565b601482019150610f628285610f2f565b602082019150610f728284610f2f565b602082019150819050949350505050565b6000610f8f8284610d6a565b60208201915081905092915050565b6000602082019050610fb36000830184610d35565b92915050565b6000604082019050610fce6000830185610d35565b610fdb6020830184610f20565b9392505050565b6000606082019050610ff76000830186610d5b565b6110046020830185610d5b565b6110116040830184610f20565b949350505050565b600060208201905081810360008301526110338184610d81565b905092915050565b6000602082019050818103600083015261105481610dba565b9050919050565b6000602082019050818103600083015261107481610dfa565b9050919050565b6000602082019050818103600083015261109481610e3a565b9050919050565b600060208201905081810360008301526110b481610e7a565b9050919050565b600060208201905081810360008301526110d481610ee0565b9050919050565b60006020820190506110f06000830184610f20565b92915050565b600060608201905061110b6000830186610f20565b818103602083015261111d8185610d81565b905081810360408301526111318184610d81565b9050949350505050565b60006080820190506111506000830187610f20565b81810360208301526111628186610d81565b905081810360408301526111768185610d81565b90506111856060830184610f20565b95945050505050565b6000604051905081810181811067ffffffffffffffff821117156111b5576111b46113b0565b5b8060405250919050565b600067ffffffffffffffff8211156111da576111d96113b0565b5b601f19601f8301169050602081019050919050565b600081519050919050565b600082825260208201905092915050565b600061121682611233565b9050919050565b60008115159050919050565b6000819050919050565b600073ffffffffffffffffffffffffffffffffffffffff82169050919050565b6000819050919050565b82818337600083830152505050565b60005b8381101561128a57808201518184015260208101905061126f565b83811115611299576000848401525b50505050565b600060028204905060018216806112b757607f821691505b602082108114156112cb576112ca611381565b5b50919050565b60006112dc82611253565b91507fffffffffffffffffffffffffffffffffffffffffffffffffffffffffffffffff82141561130f5761130e611352565b5b600182019050919050565b600061132582611336565b9050919050565b6000819050919050565b6000611341826113f0565b9050919050565b6000819050919050565b7f4e487b7100000000000000000000000000000000000000000000000000000000600052601160045260246000fd5b7f4e487b7100000000000000000000000000000000000000000000000000000000600052602260045260246000fd5b7f4e487b7100000000000000000000000000000000000000000000000000000000600052604160045260246000fd5b6000601f19601f8301169050919050565b60008160601b9050919050565b6114068161120b565b811461141157600080fd5b50565b61141d81611253565b811461142857600080fd5b5056fea26469706673582212204893fb2b16b6bb00ae6ade4e9cc032f73b8646fd49270da36017ec6915ba2bf264736f6c63430008000033",
  "immutableReferences": {},
  "source": "// SPDX-License-Identifier: MIT\r\npragma solidity ^0.8.0;\r\n\r\ncontract SecureVoting {\r\n    struct Candidate {\r\n        uint id;\r\n        string name;\r\n        string party;\r\n        uint voteCount;\r\n    }\r\n\r\n    struct Voter {\r\n        bool isRegistered;\r\n        bool hasVoted;\r\n        uint vote; // Candidate ID\r\n    }\r\n\r\n    address public admin;\r\n    uint public candidateCount;\r\n    mapping(uint => Candidate) public candidates;\r\n    mapping(address => Voter) public voters;\r\n    mapping(uint => string) public auditTrail;\r\n\r\n    event VoterRegistered(address voter);\r\n    event CandidateRegistered(uint candidateId, string name, string party);\r\n    event VoteCast(address voter, uint candidateId);\r\n\r\n    modifier onlyAdmin() {\r\n        require(msg.sender == admin, \"Only admin can perform this action\");\r\n        _;\r\n    }\r\n\r\n    constructor() {\r\n        admin = msg.sender;\r\n    }\r\n\r\n    function registerVoter(address _voter) public onlyAdmin {\r\n        require(!voters[_voter].isRegistered, \"Voter already registered\");\r\n        voters[_voter] = Voter({\r\n            isRegistered: true,\r\n            hasVoted: false,\r\n            vote: 0\r\n        });\r\n        emit VoterRegistered(_voter);\r\n    }\r\n\r\n    function registerCandidate(string memory _name, string memory _party) public onlyAdmin {\r\n        candidateCount++;\r\n        candidates[candidateCount] = Candidate({\r\n            id: candidateCount,\r\n            name: _name,\r\n            party: _party,\r\n            voteCount: 0\r\n        });\r\n        emit CandidateRegistered(candidateCount, _name, _party);\r\n    }\r\n\r\n    function vote(uint _candidateId) public {\r\n        require(voters[msg.sender].isRegistered, \"Not registered to vote\");\r\n        require(!voters[msg.sender].hasVoted, \"Already voted\");\r\n        require(_candidateId > 0 && _candidateId <= candidateCount, \"Invalid candidate ID\");\r\n\r\n        voters[msg.sender].hasVoted = true;\r\n        voters[msg.sender].vote = _candidateId;\r\n        candidates[_candidateId].voteCount++;\r\n\r\n        // Add hash-based audit trail\r\n        auditTrail[_candidateId] = string(\r\n            abi.encodePacked(keccak256(\r\n                abi.encodePacked(msg.sender, _candidateId, block.timestamp)\r\n            ))\r\n        );\r\n\r\n        emit VoteCast(msg.sender, _candidateId);\r\n    }\r\n\r\n    function getAuditTrail(uint _candidateId) public view returns (string memory) {\r\n        return auditTrail[_candidateId];\r\n    }\r\n}\r\n",
  "sourcePath": "D:\\E\\WEB DEVELOPMENT\\voting-system\\SmartContract\\contracts\\Voting.sol",
  "compiler": {
    "name": "solc",
    "version": "0.8.0+commit.c7dfd78e.Emscripten.clang"
  },
  "schemaVersion": "3.4.16",
  "updatedAt": "2024-11-25T12:54:10.734Z",
  "networkType": "ethereum",
  "devdoc": {
    "kind": "dev",
    "methods": {},
    "version": 1
  },
  "userdoc": {
    "kind": "user",
    "methods": {},
    "version": 1
  }
}