{
  "contractName": "VotingSystem",
  "abi": [
    {
      "inputs": [],
      "stateMutability": "nonpayable",
      "type": "constructor"
    },
    {
      "anonymous": false,
      "inputs": [
        {
          "indexed": false,
          "internalType": "uint256",
          "name": "candidateId",
          "type": "uint256"
        },
        {
          "indexed": false,
          "internalType": "string",
          "name": "name",
          "type": "string"
        },
        {
          "indexed": false,
          "internalType": "string",
          "name": "party",
          "type": "string"
        }
      ],
      "name": "CandidateRegistered",
      "type": "event"
    },
    {
      "anonymous": false,
      "inputs": [
        {
          "indexed": false,
          "internalType": "uint256",
          "name": "candidateId",
          "type": "uint256"
        },
        {
          "indexed": false,
          "internalType": "string",
          "name": "name",
          "type": "string"
        },
        {
          "indexed": false,
          "internalType": "uint256",
          "name": "voteCount",
          "type": "uint256"
        }
      ],
      "name": "ResultsDeclared",
      "type": "event"
    },
    {
      "anonymous": false,
      "inputs": [
        {
          "indexed": false,
          "internalType": "address",
          "name": "voter",
          "type": "address"
        },
        {
          "indexed": false,
          "internalType": "uint256",
          "name": "candidateId",
          "type": "uint256"
        }
      ],
      "name": "VoteCast",
      "type": "event"
    },
    {
      "anonymous": false,
      "inputs": [
        {
          "indexed": false,
          "internalType": "address",
          "name": "voter",
          "type": "address"
        },
        {
          "indexed": false,
          "internalType": "string",
          "name": "publicKey",
          "type": "string"
        }
      ],
      "name": "VoterRegistered",
      "type": "event"
    },
    {
      "inputs": [],
      "name": "admin",
      "outputs": [
        {
          "internalType": "address",
          "name": "",
          "type": "address"
        }
      ],
      "stateMutability": "view",
      "type": "function",
      "constant": true
    },
    {
      "inputs": [
        {
          "internalType": "uint256",
          "name": "",
          "type": "uint256"
        }
      ],
      "name": "auditTrail",
      "outputs": [
        {
          "internalType": "string",
          "name": "",
          "type": "string"
        }
      ],
      "stateMutability": "view",
      "type": "function",
      "constant": true
    },
    {
      "inputs": [],
      "name": "candidateCount",
      "outputs": [
        {
          "internalType": "uint256",
          "name": "",
          "type": "uint256"
        }
      ],
      "stateMutability": "view",
      "type": "function",
      "constant": true
    },
    {
      "inputs": [
        {
          "internalType": "uint256",
          "name": "",
          "type": "uint256"
        }
      ],
      "name": "candidates",
      "outputs": [
        {
          "internalType": "uint256",
          "name": "id",
          "type": "uint256"
        },
        {
          "internalType": "string",
          "name": "name",
          "type": "string"
        },
        {
          "internalType": "string",
          "name": "party",
          "type": "string"
        },
        {
          "internalType": "string",
          "name": "manifesto",
          "type": "string"
        },
        {
          "internalType": "uint256",
          "name": "voteCount",
          "type": "uint256"
        }
      ],
      "stateMutability": "view",
      "type": "function",
      "constant": true
    },
    {
      "inputs": [
        {
          "internalType": "address",
          "name": "",
          "type": "address"
        }
      ],
      "name": "voters",
      "outputs": [
        {
          "internalType": "bool",
          "name": "isRegistered",
          "type": "bool"
        },
        {
          "internalType": "bool",
          "name": "hasVoted",
          "type": "bool"
        },
        {
          "internalType": "uint256",
          "name": "vote",
          "type": "uint256"
        },
        {
          "internalType": "string",
          "name": "publicKey",
          "type": "string"
        }
      ],
      "stateMutability": "view",
      "type": "function",
      "constant": true
    },
    {
      "inputs": [
        {
          "internalType": "address",
          "name": "_voter",
          "type": "address"
        },
        {
          "internalType": "string",
          "name": "_publicKey",
          "type": "string"
        }
      ],
      "name": "registerVoter",
      "outputs": [],
      "stateMutability": "nonpayable",
      "type": "function"
    },
    {
      "inputs": [
        {
          "internalType": "string",
          "name": "_name",
          "type": "string"
        },
        {
          "internalType": "string",
          "name": "_party",
          "type": "string"
        },
        {
          "internalType": "string",
          "name": "_manifesto",
          "type": "string"
        }
      ],
      "name": "registerCandidate",
      "outputs": [],
      "stateMutability": "nonpayable",
      "type": "function"
    },
    {
      "inputs": [
        {
          "internalType": "uint256",
          "name": "_candidateId",
          "type": "uint256"
        },
        {
          "internalType": "string",
          "name": "_quantumSafeHash",
          "type": "string"
        }
      ],
      "name": "vote",
      "outputs": [],
      "stateMutability": "nonpayable",
      "type": "function"
    },
    {
      "inputs": [
        {
          "internalType": "uint256",
          "name": "_candidateId",
          "type": "uint256"
        }
      ],
      "name": "getCandidateDetails",
      "outputs": [
        {
          "internalType": "string",
          "name": "name",
          "type": "string"
        },
        {
          "internalType": "string",
          "name": "party",
          "type": "string"
        },
        {
          "internalType": "string",
          "name": "manifesto",
          "type": "string"
        },
        {
          "internalType": "uint256",
          "name": "voteCount",
          "type": "uint256"
        }
      ],
      "stateMutability": "view",
      "type": "function",
      "constant": true
    },
    {
      "inputs": [],
      "name": "declareResults",
      "outputs": [],
      "stateMutability": "nonpayable",
      "type": "function"
    },
    {
      "inputs": [
        {
          "internalType": "uint256",
          "name": "_candidateId",
          "type": "uint256"
        }
      ],
      "name": "getAuditTrail",
      "outputs": [
        {
          "internalType": "string",
          "name": "",
          "type": "string"
        }
      ],
      "stateMutability": "view",
      "type": "function",
      "constant": true
    }
  ],
  "bytecode": "0x608060405234801561001057600080fd5b50336000806101000a81548173ffffffffffffffffffffffffffffffffffffffff021916908373ffffffffffffffffffffffffffffffffffffffff160217905550611c4d806100606000396000f3fe608060405234801561001057600080fd5b50600436106100a95760003560e01c8063a3ec138d11610071578063a3ec138d14610157578063a9a981a31461018a578063c231fa46146101a8578063ddaf0929146101d8578063ebbb4f8414610208578063f851a44014610224576100a9565b80630248a341146100ae57806324108475146100b857806327f9fd50146100d45780633477ee2e1461010757806335c3c8761461013b575b600080fd5b6100b6610242565b005b6100d260048036038101906100cd91906114c7565b61052a565b005b6100ee60048036038101906100e9919061149e565b6107cd565b6040516100fe94939291906117c9565b60405180910390f35b610121600480360381019061011c919061149e565b610a34565b604051610132959493929190611923565b60405180910390f35b61015560048036038101906101509190611407565b610c02565b005b610171600480360381019061016c919061138a565b610d97565b604051610181949392919061175b565b60405180910390f35b610192610e69565b60405161019f91906118c3565b60405180910390f35b6101c260048036038101906101bd919061149e565b610e6f565b6040516101cf91906117a7565b60405180910390f35b6101f260048036038101906101ed919061149e565b610f65565b6040516101ff91906117a7565b60405180910390f35b610222600480360381019061021d91906113b3565b611005565b005b61022c611231565b60405161023991906116e7565b60405180910390f35b60008054906101000a900473ffffffffffffffffffffffffffffffffffffffff1673ffffffffffffffffffffffffffffffffffffffff163373ffffffffffffffffffffffffffffffffffffffff16146102d0576040517f08c379a00000000000000000000000000000000000000000000000000000000081526004016102c790611863565b60405180910390fd5b6000600190505b6001548111610527576000600260008381526020019081526020016000206040518060a00160405290816000820154815260200160018201805461031a90611ad0565b80601f016020809104026020016040519081016040528092919081815260200182805461034690611ad0565b80156103935780601f1061036857610100808354040283529160200191610393565b820191906000526020600020905b81548152906001019060200180831161037657829003601f168201915b505050505081526020016002820180546103ac90611ad0565b80601f01602080910402602001604051908101604052809291908181526020018280546103d890611ad0565b80156104255780601f106103fa57610100808354040283529160200191610425565b820191906000526020600020905b81548152906001019060200180831161040857829003601f168201915b5050505050815260200160038201805461043e90611ad0565b80601f016020809104026020016040519081016040528092919081815260200182805461046a90611ad0565b80156104b75780601f1061048c576101008083540402835291602001916104b7565b820191906000526020600020905b81548152906001019060200180831161049a57829003601f168201915b5050505050815260200160048201548152505090507f9e7524d945d09edf534402460d225099fecc3c6caf4b5fad0c54f133040510d481600001518260200151836080015160405161050b9392919061198b565b60405180910390a150808061051f90611b02565b9150506102d7565b50565b600360003373ffffffffffffffffffffffffffffffffffffffff1673ffffffffffffffffffffffffffffffffffffffff16815260200190815260200160002060000160009054906101000a900460ff166105b9576040517f08c379a00000000000000000000000000000000000000000000000000000000081526004016105b090611823565b60405180910390fd5b600360003373ffffffffffffffffffffffffffffffffffffffff1673ffffffffffffffffffffffffffffffffffffffff16815260200190815260200160002060000160019054906101000a900460ff1615610649576040517f08c379a0000000000000000000000000000000000000000000000000000000008152600401610640906118a3565b60405180910390fd5b60008211801561065b57506001548211155b61069a576040517f08c379a000000000000000000000000000000000000000000000000000000000815260040161069190611883565b60405180910390fd5b6001600360003373ffffffffffffffffffffffffffffffffffffffff1673ffffffffffffffffffffffffffffffffffffffff16815260200190815260200160002060000160016101000a81548160ff02191690831515021790555081600360003373ffffffffffffffffffffffffffffffffffffffff1673ffffffffffffffffffffffffffffffffffffffff1681526020019081526020016000206001018190555060026000838152602001908152602001600020600401600081548092919061076390611b02565b91905055508060046000848152602001908152602001600020908051906020019061078f929190611255565b507fa36cc2bebb74db33e9f88110a07ef56e1b31b24b4c4f51b54b1664266e29f45b33836040516107c1929190611732565b60405180910390a15050565b6060806060600080851180156107e557506001548511155b610824576040517f08c379a000000000000000000000000000000000000000000000000000000000815260040161081b90611883565b60405180910390fd5b6000600260008781526020019081526020016000206040518060a00160405290816000820154815260200160018201805461085e90611ad0565b80601f016020809104026020016040519081016040528092919081815260200182805461088a90611ad0565b80156108d75780601f106108ac576101008083540402835291602001916108d7565b820191906000526020600020905b8154815290600101906020018083116108ba57829003601f168201915b505050505081526020016002820180546108f090611ad0565b80601f016020809104026020016040519081016040528092919081815260200182805461091c90611ad0565b80156109695780601f1061093e57610100808354040283529160200191610969565b820191906000526020600020905b81548152906001019060200180831161094c57829003601f168201915b5050505050815260200160038201805461098290611ad0565b80601f01602080910402602001604051908101604052809291908181526020018280546109ae90611ad0565b80156109fb5780601f106109d0576101008083540402835291602001916109fb565b820191906000526020600020905b8154815290600101906020018083116109de57829003601f168201915b50505050508152602001600482015481525050905080602001518160400151826060015183608001519450945094509450509193509193565b6002602052806000526040600020600091509050806000015490806001018054610a5d90611ad0565b80601f0160208091040260200160405190810160405280929190818152602001828054610a8990611ad0565b8015610ad65780601f10610aab57610100808354040283529160200191610ad6565b820191906000526020600020905b815481529060010190602001808311610ab957829003601f168201915b505050505090806002018054610aeb90611ad0565b80601f0160208091040260200160405190810160405280929190818152602001828054610b1790611ad0565b8015610b645780601f10610b3957610100808354040283529160200191610b64565b820191906000526020600020905b815481529060010190602001808311610b4757829003601f168201915b505050505090806003018054610b7990611ad0565b80601f0160208091040260200160405190810160405280929190818152602001828054610ba590611ad0565b8015610bf25780601f10610bc757610100808354040283529160200191610bf2565b820191906000526020600020905b815481529060010190602001808311610bd557829003601f168201915b5050505050908060040154905085565b60008054906101000a900473ffffffffffffffffffffffffffffffffffffffff1673ffffffffffffffffffffffffffffffffffffffff163373ffffffffffffffffffffffffffffffffffffffff1614610c90576040517f08c379a0000000000000000000000000000000000000000000000000000000008152600401610c8790611863565b60405180910390fd5b60016000815480929190610ca390611b02565b91905055506040518060a0016040528060015481526020018481526020018381526020018281526020016000815250600260006001548152602001908152602001600020600082015181600001556020820151816001019080519060200190610d0d929190611255565b506040820151816002019080519060200190610d2a929190611255565b506060820151816003019080519060200190610d47929190611255565b50608082015181600401559050507f0ec1a365aeeec255796bf50d7a2a8f24d0d5f5c6ada0167b6c647428d91645826001548484604051610d8a939291906118de565b60405180910390a1505050565b60036020528060005260406000206000915090508060000160009054906101000a900460ff16908060000160019054906101000a900460ff1690806001015490806002018054610de690611ad0565b80601f0160208091040260200160405190810160405280929190818152602001828054610e1290611ad0565b8015610e5f5780601f10610e3457610100808354040283529160200191610e5f565b820191906000526020600020905b815481529060010190602001808311610e4257829003601f168201915b5050505050905084565b60015481565b6060600082118015610e8357506001548211155b610ec2576040517f08c379a0000000000000000000000000000000000000000000000000000000008152600401610eb990611883565b60405180910390fd5b600460008381526020019081526020016000208054610ee090611ad0565b80601f0160208091040260200160405190810160405280929190818152602001828054610f0c90611ad0565b8015610f595780601f10610f2e57610100808354040283529160200191610f59565b820191906000526020600020905b815481529060010190602001808311610f3c57829003601f168201915b50505050509050919050565b60046020528060005260406000206000915090508054610f8490611ad0565b80601f0160208091040260200160405190810160405280929190818152602001828054610fb090611ad0565b8015610ffd5780601f10610fd257610100808354040283529160200191610ffd565b820191906000526020600020905b815481529060010190602001808311610fe057829003601f168201915b505050505081565b60008054906101000a900473ffffffffffffffffffffffffffffffffffffffff1673ffffffffffffffffffffffffffffffffffffffff163373ffffffffffffffffffffffffffffffffffffffff1614611093576040517f08c379a000000000000000000000000000000000000000000000000000000000815260040161108a90611863565b60405180910390fd5b600360008373ffffffffffffffffffffffffffffffffffffffff1673ffffffffffffffffffffffffffffffffffffffff16815260200190815260200160002060000160009054906101000a900460ff1615611123576040517f08c379a000000000000000000000000000000000000000000000000000000000815260040161111a90611843565b60405180910390fd5b60405180608001604052806001151581526020016000151581526020016000815260200182815250600360008473ffffffffffffffffffffffffffffffffffffffff1673ffffffffffffffffffffffffffffffffffffffff16815260200190815260200160002060008201518160000160006101000a81548160ff02191690831515021790555060208201518160000160016101000a81548160ff0219169083151502179055506040820151816001015560608201518160020190805190602001906111f0929190611255565b509050507fffeb7702be7dcd8fee170d954b70afb9a7c78f7f5cff232d037e7b9d8243356a8282604051611225929190611702565b60405180910390a15050565b60008054906101000a900473ffffffffffffffffffffffffffffffffffffffff1681565b82805461126190611ad0565b90600052602060002090601f01602090048101928261128357600085556112ca565b82601f1061129c57805160ff19168380011785556112ca565b828001600101855582156112ca579182015b828111156112c95782518255916020019190600101906112ae565b5b5090506112d791906112db565b5090565b5b808211156112f45760008160009055506001016112dc565b5090565b600061130b611306846119fa565b6119c9565b90508281526020810184848401111561132357600080fd5b61132e848285611a8e565b509392505050565b60008135905061134581611be9565b92915050565b600082601f83011261135c57600080fd5b813561136c8482602086016112f8565b91505092915050565b60008135905061138481611c00565b92915050565b60006020828403121561139c57600080fd5b60006113aa84828501611336565b91505092915050565b600080604083850312156113c657600080fd5b60006113d485828601611336565b925050602083013567ffffffffffffffff8111156113f157600080fd5b6113fd8582860161134b565b9150509250929050565b60008060006060848603121561141c57600080fd5b600084013567ffffffffffffffff81111561143657600080fd5b6114428682870161134b565b935050602084013567ffffffffffffffff81111561145f57600080fd5b61146b8682870161134b565b925050604084013567ffffffffffffffff81111561148857600080fd5b6114948682870161134b565b9150509250925092565b6000602082840312156114b057600080fd5b60006114be84828501611375565b91505092915050565b600080604083850312156114da57600080fd5b60006114e885828601611375565b925050602083013567ffffffffffffffff81111561150557600080fd5b6115118582860161134b565b9150509250929050565b61152481611a46565b82525050565b61153381611a58565b82525050565b600061154482611a2a565b61154e8185611a35565b935061155e818560208601611a9d565b61156781611bd8565b840191505092915050565b600061157f601e83611a35565b91507f596f7520617265206e6f74207265676973746572656420746f20766f746500006000830152602082019050919050565b60006115bf601883611a35565b91507f566f74657220616c7265616479207265676973746572656400000000000000006000830152602082019050919050565b60006115ff602283611a35565b91507f4f6e6c792061646d696e2063616e20706572666f726d2074686973206163746960008301527f6f6e0000000000000000000000000000000000000000000000000000000000006020830152604082019050919050565b6000611665601483611a35565b91507f496e76616c69642063616e6469646174652049440000000000000000000000006000830152602082019050919050565b60006116a5601683611a35565b91507f596f75206861766520616c726561647920766f746564000000000000000000006000830152602082019050919050565b6116e181611a84565b82525050565b60006020820190506116fc600083018461151b565b92915050565b6000604082019050611717600083018561151b565b81810360208301526117298184611539565b90509392505050565b6000604082019050611747600083018561151b565b61175460208301846116d8565b9392505050565b6000608082019050611770600083018761152a565b61177d602083018661152a565b61178a60408301856116d8565b818103606083015261179c8184611539565b905095945050505050565b600060208201905081810360008301526117c18184611539565b905092915050565b600060808201905081810360008301526117e38187611539565b905081810360208301526117f78186611539565b9050818103604083015261180b8185611539565b905061181a60608301846116d8565b95945050505050565b6000602082019050818103600083015261183c81611572565b9050919050565b6000602082019050818103600083015261185c816115b2565b9050919050565b6000602082019050818103600083015261187c816115f2565b9050919050565b6000602082019050818103600083015261189c81611658565b9050919050565b600060208201905081810360008301526118bc81611698565b9050919050565b60006020820190506118d860008301846116d8565b92915050565b60006060820190506118f360008301866116d8565b81810360208301526119058185611539565b905081810360408301526119198184611539565b9050949350505050565b600060a08201905061193860008301886116d8565b818103602083015261194a8187611539565b9050818103604083015261195e8186611539565b905081810360608301526119728185611539565b905061198160808301846116d8565b9695505050505050565b60006060820190506119a060008301866116d8565b81810360208301526119b28185611539565b90506119c160408301846116d8565b949350505050565b6000604051905081810181811067ffffffffffffffff821117156119f0576119ef611ba9565b5b8060405250919050565b600067ffffffffffffffff821115611a1557611a14611ba9565b5b601f19601f8301169050602081019050919050565b600081519050919050565b600082825260208201905092915050565b6000611a5182611a64565b9050919050565b60008115159050919050565b600073ffffffffffffffffffffffffffffffffffffffff82169050919050565b6000819050919050565b82818337600083830152505050565b60005b83811015611abb578082015181840152602081019050611aa0565b83811115611aca576000848401525b50505050565b60006002820490506001821680611ae857607f821691505b60208210811415611afc57611afb611b7a565b5b50919050565b6000611b0d82611a84565b91507fffffffffffffffffffffffffffffffffffffffffffffffffffffffffffffffff821415611b4057611b3f611b4b565b5b600182019050919050565b7f4e487b7100000000000000000000000000000000000000000000000000000000600052601160045260246000fd5b7f4e487b7100000000000000000000000000000000000000000000000000000000600052602260045260246000fd5b7f4e487b7100000000000000000000000000000000000000000000000000000000600052604160045260246000fd5b6000601f19601f8301169050919050565b611bf281611a46565b8114611bfd57600080fd5b50565b611c0981611a84565b8114611c1457600080fd5b5056fea2646970667358221220f676227d0119901b66d29f5c230ab7aea30ed8edd894d641dd18eaad78e31dd564736f6c63430008000033",
  "immutableReferences": {},
  "source": "// SPDX-License-Identifier: MIT\r\npragma solidity ^0.8.0;\r\n\r\ncontract VotingSystem {\r\n    struct Candidate {\r\n        uint id;\r\n        string name;\r\n        string party;\r\n        string manifesto;\r\n        uint voteCount;\r\n    }\r\n\r\n    struct Voter {\r\n        bool isRegistered;\r\n        bool hasVoted;\r\n        uint vote; // Candidate ID\r\n        string publicKey; // Quantum-safe public key (base64 encoded)\r\n    }\r\n\r\n    address public admin; // Admin account for managing the system\r\n    uint public candidateCount; // Total number of candidates\r\n    mapping(uint => Candidate) public candidates; // Candidate ID => Candidate details\r\n    mapping(address => Voter) public voters; // Wallet address => Voter details\r\n    mapping(uint => string) public auditTrail; // Candidate ID => Quantum-safe hash of votes\r\n\r\n    event VoterRegistered(address voter, string publicKey);\r\n    event CandidateRegistered(uint candidateId, string name, string party);\r\n    event VoteCast(address voter, uint candidateId);\r\n    event ResultsDeclared(uint candidateId, string name, uint voteCount);\r\n\r\n    modifier onlyAdmin() {\r\n        require(msg.sender == admin, \"Only admin can perform this action\");\r\n        _;\r\n    }\r\n\r\n    constructor() {\r\n        admin = msg.sender; // Set the deployer as the admin\r\n    }\r\n\r\n    // Register a voter with their quantum-safe public key\r\n    function registerVoter(address _voter, string memory _publicKey) public onlyAdmin {\r\n        require(!voters[_voter].isRegistered, \"Voter already registered\");\r\n        voters[_voter] = Voter({\r\n            isRegistered: true,\r\n            hasVoted: false,\r\n            vote: 0,\r\n            publicKey: _publicKey\r\n        });\r\n        emit VoterRegistered(_voter, _publicKey);\r\n    }\r\n\r\n    // Register a candidate\r\n    function registerCandidate(string memory _name, string memory _party, string memory _manifesto) public onlyAdmin {\r\n        candidateCount++;\r\n        candidates[candidateCount] = Candidate({\r\n            id: candidateCount,\r\n            name: _name,\r\n            party: _party,\r\n            manifesto: _manifesto,\r\n            voteCount: 0\r\n        });\r\n        emit CandidateRegistered(candidateCount, _name, _party);\r\n    }\r\n\r\n    // Cast a vote\r\n    function vote(uint _candidateId, string memory _quantumSafeHash) public {\r\n        require(voters[msg.sender].isRegistered, \"You are not registered to vote\");\r\n        require(!voters[msg.sender].hasVoted, \"You have already voted\");\r\n        require(_candidateId > 0 && _candidateId <= candidateCount, \"Invalid candidate ID\");\r\n\r\n        // Mark the voter as having voted\r\n        voters[msg.sender].hasVoted = true;\r\n        voters[msg.sender].vote = _candidateId;\r\n\r\n        // Increment the vote count for the candidate\r\n        candidates[_candidateId].voteCount++;\r\n\r\n        // Store the quantum-safe hash in the audit trail\r\n        auditTrail[_candidateId] = _quantumSafeHash;\r\n\r\n        emit VoteCast(msg.sender, _candidateId);\r\n    }\r\n\r\n    // Get candidate details\r\n    function getCandidateDetails(uint _candidateId)\r\n        public\r\n        view\r\n        returns (\r\n            string memory name,\r\n            string memory party,\r\n            string memory manifesto,\r\n            uint voteCount\r\n        )\r\n    {\r\n        require(_candidateId > 0 && _candidateId <= candidateCount, \"Invalid candidate ID\");\r\n        Candidate memory candidate = candidates[_candidateId];\r\n        return (candidate.name, candidate.party, candidate.manifesto, candidate.voteCount);\r\n    }\r\n\r\n    // Declare results for all candidates\r\n    function declareResults() public onlyAdmin {\r\n        for (uint i = 1; i <= candidateCount; i++) {\r\n            Candidate memory candidate = candidates[i];\r\n            emit ResultsDeclared(candidate.id, candidate.name, candidate.voteCount);\r\n        }\r\n    }\r\n\r\n    // Get the quantum-safe hash of votes for a candidate\r\n    function getAuditTrail(uint _candidateId) public view returns (string memory) {\r\n        require(_candidateId > 0 && _candidateId <= candidateCount, \"Invalid candidate ID\");\r\n        return auditTrail[_candidateId];\r\n    }\r\n}\r\n",
  "sourcePath": "D:\\E\\WEB DEVELOPMENT\\voting-system\\SmartContract\\contracts\\Voting.sol",
  "compiler": {
    "name": "solc",
    "version": "0.8.0+commit.c7dfd78e.Emscripten.clang"
  },
  "schemaVersion": "3.4.16",
  "updatedAt": "2024-11-18T14:03:06.442Z",
  "networkType": "ethereum",
  "devdoc": {
    "kind": "dev",
    "methods": {},
    "version": 1
  },
  "userdoc": {
    "kind": "user",
    "methods": {},
    "version": 1
  }
}